:1000000012C02DC0CBC02AC029C028C027C026C01E
:1000100025C063C123C022C021C020C01FC01EC094
:100020001DC01CC01BC011241FBECFE5D4E0DEBF25
:10003000CDBF10E0A0E6B0E0E8E4FBE002C0059030
:100040000D92A036B107D9F710E0A0E6B0E001C0EC
:100050001D92A838B107E1F770D574C5D1CF1F92B2
:100060000F920FB60F9211242F933F934F935F93EC
:100070006F937F938F939F93AF93EF93FF938091B1
:100080007700882309F060C081E0809377001DBC71
:100090001CBC50916100409162003091630020913E
:1000A000640090916500F0916600E0916700A09176
:1000B0006800752F7E5C61E0751708F060E0842FA2
:1000C00050E0640F41E0681708F040E0542B832FA4
:1000D00040E0530F31E0581708F030E0432B822FF7
:1000E00030E0420F21E0481708F020E0322B892F42
:1000F00020E0390F91E0381708F090E0292B8F2F7E
:1001000090E02F0FF1E0281708F0F0E09F2BFE2F72
:1001100080E09E0FE1E09F1708F0E0E08E2B8A0F51
:1001200070936F0060937000509371004093720061
:100130003093730020937400909375008093760041
:10014000809177008823D1F08F5F8093770085308E
:10015000A8F081E080936D001092770010926F00FC
:100160001092700010927100109272001092730041
:10017000109274001092750010927600FF91EF912A
:10018000AF919F918F917F916F915F914F913F912F
:100190002F910F900FBE0F901F9018951F920F92E6
:1001A0000FB60F9211242F933F934F935F936F934A
:1001B0007F938F939F93AF93EF93FF9380916E0004
:1001C000882309F060C081E080936E001DBC1CBCD8
:1001D0005091610040916200309163002091640071
:1001E00090916500F0916600E0916700A091680031
:1001F000752F7E5C61E0751708F060E0842F50E099
:10020000640F41E0681708F040E0542B832F40E072
:10021000530F31E0581708F030E0432B822F30E0C5
:10022000420F21E0481708F020E0322B892F20E010
:10023000390F91E0381708F090E0292B8F2F90E0CC
:100240002F0FF1E0281708F0F0E09F2BFE2F80E041
:100250009E0FE1E09F1708F0E0E08E2B8A0F70936D
:100260006F00609370005093710040937200309360
:1002700073002093740090937500809376008091B2
:100280006E008823D1F08F5F80936E008530A8F0D8
:1002900081E080936C0010926E0010926F001092BB
:1002A0007000109271001092720010927300109200
:1002B00074001092750010927600FF91EF91AF914B
:1002C0009F918F917F916F915F914F913F912F916E
:1002D0000F900FBE0F901F9018951F920F920FB6A0
:1002E0000F9211240F931F932F933F934F935F937C
:1002F0006F937F938F939F93AF93BF93CF93DF932E
:10030000EF93FF9340916100309162002091630070
:100310009091640080916500F0916600E091670023
:10032000A0916800642F6F5F51E0641708F050E0FF
:10033000732F40E0530F31E0571708F030E0432BA4
:10034000722F30E0420F21E0471708F020E0322BF7
:10035000792F20E0390F91E0371708F090E0292B32
:10036000782F90E0280F81E0271708F080E0982B85
:100370007F2F80E09F0FF1E0971708F0F0E08F2BC0
:10038000FE2F70E08E0FE1E08F1708F0E0E07E2B8B
:100390007A0F062FD52F142FC32FB22FA92FF82F86
:1003A000E72F6093610050936200409363003093A5
:1003B00064002093650090936600809367007093BB
:1003C0006800809160008F5F80936000863248F003
:1003D0001092600081E090916900911180E080931B
:1003E000690070916F008091700060917100509170
:1003F00072004091730030917400209175009091CB
:100400007600E917C0F19E17D1F4F217A0F12F176B
:10041000B1F4A31780F13A1791F4B41760F14B17B8
:1004200071F4C51740F15C1751F4161720F16117EC
:1004300031F4D81700F18D1711F40717E0F0872B6E
:10044000862B852B842B832B822B892BA1F010925A
:10045000770010926E0010926F0010927000109250
:10046000710010927200109273001092740010923A
:10047000750010927600FF91EF91DF91CF91BF91BF
:10048000AF919F918F917F916F915F914F913F912C
:100490002F911F910F910F900FBE0F901F901895E5
:1004A00083E087BB8EE085BB14BA80E981BB83B74C
:1004B000856083BF89B7816089BF85B78F6085BF3D
:1004C0008BB7806C8BBF78940895C198C0981092B8
:1004D0006A00089591E090936A00813019F4C09801
:1004E000C19A0895882311F4C198C09A0895809103
:1004F0006D00882311F4999931C010926D00949881
:1005000080916100809380008091620080938100DF
:1005100080916300809382008091640080938300C7
:1005200080916500809384008091660080938500AF
:100530008091670080938600809168008093870097
:1005400081E0C8DF81E080936B008FE392E4AFE04D
:1005500081509040A040E1F700C000000895CF9284
:10056000DF92EF92FF920F931F93CF93DF938091CF
:100570006D00882321F49A9B02C09B992FC0109292
:100580006D0080916100809378008091620080937B
:1005900079008091630080937A0080916400809359
:1005A0007B008091650080937C0080916600809341
:1005B0007D008091670080937E0080916800809329
:1005C0007F0083DF82E080936B008FE392E4AFE0F3
:1005D00081509040A040E1F700C00000C090610051
:1005E000D0906200E0906300F0906400009165009C
:1005F00010916600D0916700A09168008091800002
:1006000060918100409182003091830020918400AC
:10061000F0918500E0918600C0918700B82FBC580A
:1006200051E0B81708F050E0862F8C5F91E08617F4
:1006300008F090E0580F61E0581708F060E0962B42
:10064000852F742F50E0940F41E0971708F040E099
:10065000542B792F40E0530F91E0531708F090E0AE
:10066000492B652F30E0420F91E0421708F090E0EF
:10067000392B542F20E03F0F91E03F1708F090E016
:10068000292B432F3E2F90E02E0FE1E0231708F097
:10069000E0E09E2B9C0F9A17E0F0A91771F52D173B
:1006A000C0F0D21751F54117A0F0141731F55017CB
:1006B00080F0051711F56F1560F0F616F1F47E1550
:1006C00040F0E716D1F48D1520F0D816B1F4BC1522
:1006D000A0F4C0927800D0927900E0927A00F09273
:1006E0007B0000937C0010937D00D0937E00A0934C
:1006F0007F00EBDE82E080936B00DF91CF911F9152
:100700000F91FF90EF90DF90CF900895DF92EF92DE
:10071000FF920F931F93CF93DF9380916D008823F7
:1007200011F49B9930C010926D008091610080930C
:1007300080008091620080938100809163008093AB
:100740008200809164008093830080916500809393
:10075000840080916600809385008091670080937B
:100760008600809168008093870080E0B3DE83E09C
:1007700080936B008FE392E4AFE081509040A04003
:10078000E1F700C00000709178006091790050910D
:100790007A0040917B0030917C0020917D00909107
:1007A0007E00E0917F00872F862B852B842B832B67
:1007B000822B892B8E2B09F48FC0859B8DC0D09006
:1007C0006100E0906200F09063000091640010917D
:1007D0006500D0916600C0916700A0916800B72FB6
:1007E000B851F1E0B71708F0F0E0862F885F71E0AC
:1007F000861708F070E06F2F680FF1E0681708F0B7
:10080000F0E07F2B862FF52F60E0570F71E05F1728
:1008100008F070E0672BF52F742F50E0460F61E071
:10082000471708F060E0562B742F632F40E0350F18
:1008300051E0361708F050E0452B632F522F30E07F
:10084000240F41E0251708F040E0342B522F492FA8
:1008500020E0930F31E0941708F030E0232BE20FF3
:10086000EA17E0F0AE17C1F59C17C0F0C917A1F563
:100870005D17A0F0D51781F5611780F0161761F5A7
:10088000701760F0071741F5FF1540F0FF1621F5CE
:100890008E1520F0E81601F5BD15F0F4D092800019
:1008A000E0928100F0928200009383001093840014
:1008B000D0938500C0938600A093870080E00ADE75
:1008C00083E080936B008FE392E4AFE0815090402F
:1008D000A040E1F700C00000DF91CF911F910F9180
:1008E000FF90EF90DF90089580916D00882321F4B0
:1008F000999B02C09A992FC010926D00809161005F
:1009000080937800809162008093790080916300E9
:1009100080937A008091640080937B0080916500D1
:1009200080937C008091660080937D0080916700B9
:1009300080937E008091680080937F00C6DD82E016
:1009400080936B008FE392E4AFE081509040A04031
:10095000E1F700C00000869B38C0B7DD8FE392E46A
:10096000AFE081509040A040E1F700C000008091CE
:10097000610080938000809162008093810080916B
:100980006300809382008091640080938300809153
:10099000650080938400809166008093850080913B
:1009A000670080938600809168008093870081E0D3
:1009B00091DD8FE392E4AFE081509040A040E1F7F9
:1009C00000C0000081E080936B0080918000609106
:1009D0008100409182003091830020918400F09149
:1009E0008500E0918600B0918700A82FAC5851E0B7
:1009F000A81708F050E0862F8C5F91E0861708F06A
:100A000090E0580F61E0581708F060E0962B852FB2
:100A1000742F50E0940F41E0971708F040E0542BFA
:100A2000792F40E0530F91E0531708F090E0492BE5
:100A3000652F522F30E0420F21E0451708F020E0EB
:100A4000322B542F4F2F20E03F0FF1E0341708F0E6
:100A5000F0E02F2B432F3E2F90E02E0FE1E02317E5
:100A600008F0E0E09E2B322F9B0F20916800921738
:100A700050F12917E1F590916700391720F193178C
:100A8000B1F5909166004917F0F0941781F59091B7
:100A900065005917C0F0951751F5909164006917DA
:100AA00090F0961721F590916300791760F09717F1
:100AB000F1F490916200891730F09817C1F4809199
:100AC0006100A817A0F4949A10927800109279000F
:100AD00010927A0010927B0010927C0010927D00A0
:100AE00010927E0010927F00F0DC10926B0008954F
:100AF00080916B00882309F4FADC80916B008130CF
:100B000009F42DDD80916B00823009F4FFDD8091C6
:100B10006B00833009F4E8DE089580916A00882331
:100B200041F080916900882311F497980895979A6D
:100B300008959798109269000895B2DC949AEDDFB9
:080B4000D7DFFDCFF894FFCFD1
:00000001FF
