:1000000012C02DC0CBC02AC029C028C027C026C01E
:1000100025C063C123C022C021C020C01FC01EC094
:100020001DC01CC01BC011241FBECFE5D4E0DEBF25
:10003000CDBF10E0A0E6B0E0E8ECFCE002C0059027
:100040000D92A236B107D9F710E0A2E6B0E001C0E8
:100050001D92A239B107E1F72FD634C6D1CF1F9236
:100060000F920FB60F9211242F933F934F935F93EC
:100070006F937F938F939F93AF93EF93FF938091B1
:100080008100882309F060C081E0809381001DBC5D
:100090001CBC50916B0040916C0030916D00209120
:1000A0006E0090916F00F0917000E0917100A0914E
:1000B0007200752F7E5C61E0751708F060E0842F98
:1000C00050E0640F41E0681708F040E0542B832FA4
:1000D00040E0530F31E0581708F030E0432B822FF7
:1000E00030E0420F21E0481708F020E0322B892F42
:1000F00020E0390F91E0381708F090E0292B8F2F7E
:1001000090E02F0FF1E0281708F0F0E09F2BFE2F72
:1001100080E09E0FE1E09F1708F0E0E08E2B8A0F51
:100120007093790060937A0050937B0040937C0039
:1001300030937D0020937E0090937F008093800019
:10014000809181008823D1F08F5F8093810085307A
:10015000A8F081E0809377001092810010927900DE
:1001600010927A0010927B0010927C0010927D0019
:1001700010927E0010927F0010928000FF91EF910C
:10018000AF919F918F917F916F915F914F913F912F
:100190002F910F900FBE0F901F9018951F920F92E6
:1001A0000FB60F9211242F933F934F935F936F934A
:1001B0007F938F939F93AF93EF93FF9380917800FA
:1001C000882309F060C081E0809378001DBC1CBCCE
:1001D00050916B0040916C0030916D0020916E0049
:1001E00090916F00F0917000E0917100A091720009
:1001F000752F7E5C61E0751708F060E0842F50E099
:10020000640F41E0681708F040E0542B832F40E072
:10021000530F31E0581708F030E0432B822F30E0C5
:10022000420F21E0481708F020E0322B892F20E010
:10023000390F91E0381708F090E0292B8F2F90E0CC
:100240002F0FF1E0281708F0F0E09F2BFE2F80E041
:100250009E0FE1E09F1708F0E0E08E2B8A0F70936D
:10026000790060937A0050937B0040937C00309338
:100270007D0020937E0090937F008093800080918A
:1002800078008823D1F08F5F809378008530A8F0C4
:1002900081E080937600109278001092790010929D
:1002A0007A0010927B0010927C0010927D001092D8
:1002B0007E0010927F0010928000FF91EF91AF912D
:1002C0009F918F917F916F915F914F913F912F916E
:1002D0000F900FBE0F901F9018951F920F920FB6A0
:1002E0000F9211240F931F932F933F934F935F937C
:1002F0006F937F938F939F93AF93BF93CF93DF932E
:10030000EF93FF9340916B0030916C0020916D0052
:1003100090916E0080916F00F0917000E0917100FB
:10032000A0917200642F6F5F51E0641708F050E0F5
:10033000732F40E0530F31E0571708F030E0432BA4
:10034000722F30E0420F21E0471708F020E0322BF7
:10035000792F20E0390F91E0371708F090E0292B32
:10036000782F90E0280F81E0271708F080E0982B85
:100370007F2F80E09F0FF1E0971708F0F0E08F2BC0
:10038000FE2F70E08E0FE1E08F1708F0E0E07E2B8B
:100390007A0F062FD52F142FC32FB22FA92FF82F86
:1003A000E72F60936B0050936C0040936D00309387
:1003B0006E0020936F009093700080937100709393
:1003C0007200809162008F5F80936200863248F0F5
:1003D0001092620081E090917300911180E080930F
:1003E00073007091790080917A0060917B00509148
:1003F0007C0040917D0030917E0020917F009091A3
:100400008000E917C0F19E17D1F4F217A0F12F1761
:10041000B1F4A31780F13A1791F4B41760F14B17B8
:1004200071F4C51740F15C1751F4161720F16117EC
:1004300031F4D81700F18D1711F40717E0F0872B6E
:10044000862B852B842B832B822B892BA1F010925A
:100450008100109278001092790010927A00109228
:100460007B0010927C0010927D0010927E00109212
:100470007F0010928000FF91EF91DF91CF91BF91AB
:10048000AF919F918F917F916F915F914F913F912C
:100490002F911F910F910F900FBE0F901F901895E5
:1004A00083E087BB8EE085BB14BA80E981BB83B74C
:1004B000856083BF89B7816089BF85B78F6085BF3D
:1004C0008BB7806C8BBF78940895C198C0981092B8
:1004D0007400089591E090937400813019F4C098ED
:1004E000C19A0895882311F4C198C09A0895809103
:1004F0007700882331F4999B04C0809160008823A1
:1005000089F110927700949880916B0080938A0013
:1005100080916C0080938B0080916D0080938C00A3
:1005200080916E0080938D0080916F0080938E008B
:100530008091700080938F00809171008093900073
:10054000809172008093910081E0C4DF81E080930C
:1005500075008FE392E4AFE081509040A040E1F756
:1005600000C000000895CF92DF92EF92FF920F93A8
:100570001F93CF93DF9380917700882321F49A9B78
:1005800002C09B9931C01092770080916B008093DC
:10059000820080916C008093830080916D00809335
:1005A000840080916E008093850080916F0080931D
:1005B0008600809170008093870080917100809305
:1005C000880080917200809389007FDF82E08093B1
:1005D00075008FE392E4AFE081509040A040E1F7D6
:1005E00000C0000010926000C0906B00D0906C00C2
:1005F000E0906D00F0906E0000916F00109170001F
:10060000D0917100A091720080918A0060918B005E
:1006100040918C0030918D0020918E00F0918F00E0
:10062000E0919000C0919100B82FBC5851E0B817EC
:1006300008F050E0862F8C5F91E0861708F090E07C
:10064000580F61E0581708F060E0962B852F742F43
:1006500050E0940F41E0971708F040E0542B792FB9
:1006600040E0530F91E0531708F090E0492B652FBD
:1006700030E0420F91E0421708F090E0392B542F00
:1006800020E03F0F91E03F1708F090E0292B432F27
:100690003E2F90E02E0FE1E0231708F0E0E09E2BC4
:1006A0009C0F9A17E0F0A91771F52D17C0F0D2171B
:1006B00051F54117A0F0141731F5501780F00517C8
:1006C00011F56F1560F0F616F1F47E1540F0E7169F
:1006D000D1F48D1520F0D816B1F4BC15A0F4C09259
:1006E0008200D0928300E0928400F0928500009313
:1006F000860010938700D0938800A0938900E5DEE0
:1007000082E080937500DF91CF911F910F91FF9050
:10071000EF90DF90CF900895DF92EF92FF920F93CA
:100720001F93CF93DF9380917700882339F49B9BAD
:1007300005C080916000882329F43DC0809160004D
:10074000882349F08FE79DE8ABE581509040A040B9
:10075000E1F700C000001092770080916B00809359
:100760008A0080916C0080938B0080916D00809353
:100770008C0080916E0080938D0080916F0080933B
:100780008E008091700080938F0080917100809323
:100790009000809172008093910080E09BDE83E066
:1007A000809375008FE392E4AFE081509040A040C9
:1007B000E1F700C0000070918200609183005091C9
:1007C00084004091850030918600209187009091AF
:1007D0008800E0918900872F862B852B842B832B23
:1007E000822B892B8E2B09F491C0859B8FC0D090D2
:1007F0006B00E0906C00F0906D0000916E00109125
:100800006F00D0917000C0917100A0917200B72F5D
:10081000B851F1E0B71708F0F0E0862F885F71E07B
:10082000861708F070E06F2F680FF1E0681708F086
:10083000F0E07F2B862FF52F60E0570F71E05F17F8
:1008400008F070E0672BF52F742F50E0460F61E041
:10085000471708F060E0562B742F632F40E0350FE8
:1008600051E0361708F050E0452B632F522F30E04F
:10087000240F41E0251708F040E0342B522F492F78
:1008800020E0930F31E0941708F030E0232BE20FC3
:10089000EA17E0F0AE17D1F59C17C0F0C917B1F513
:1008A0005D17A0F0D51791F5611780F0161771F557
:1008B000701760F0071751F5FF1540F0FF1631F57E
:1008C0008E1520F0E81611F5BD1500F510926000A8
:1008D000D0928A00E0928B00F0928C0000938D0001
:1008E00010938E00D0938F00C0939000A09391003E
:1008F00080E0F0DD83E0809375008FE392E4AFE069
:1009000081509040A040E1F700C00000DF91CF91FE
:100910001F910F91FF90EF90DF90089580917700E5
:10092000882321F4999B02C09A9931C010926000EB
:100930001092770080916B008093820080916C0010
:100940008093830080916D008093840080916E007D
:100950008093850080916F00809386008091700065
:10096000809387008091710080938800809172004D
:1009700080938900AADD82E0809375008FE392E482
:10098000AFE081509040A040E1F700C00000869B9E
:100990003AC01092600099DD8FE392E4AFE081509D
:1009A0009040A040E1F700C0000080916B00809370
:1009B0008A0080916C0080938B0080916D00809301
:1009C0008C0080916E0080938D0080916F008093E9
:1009D0008E008091700080938F00809171008093D1
:1009E0009000809172008093910081E073DD8FE32D
:1009F00092E4AFE081509040A040E1F700C00000D9
:100A000081E08093750080918A0060918B00409115
:100A10008C0030918D0020918E00F0918F00E0913C
:100A20009000B0919100A82FAC5851E0A81708F0A1
:100A300050E0862F8C5F91E0861708F090E0580F09
:100A400061E0581708F060E0962B852F742F50E076
:100A5000940F41E0971708F040E0542B792F40E0C5
:100A6000530F91E0531708F090E0492B652F522F58
:100A700030E0420F21E0451708F020E0322B542FE0
:100A80004F2F20E03F0FF1E0341708F0F0E02F2B5C
:100A9000432F3E2F90E02E0FE1E0231708F0E0E017
:100AA0009E2B322F9B0F20917200921750F1291725
:100AB000F1F590917100391720F19317C1F59091DC
:100AC00070004917F0F0941791F590916F00591745
:100AD000C0F0951761F590916E00691790F0961728
:100AE00031F590916D00791760F0971701F59091AD
:100AF0006C00891730F09817D1F480916B00A8171B
:100B0000B0F410926000949A1092820010928300C8
:100B10001092840010928500109286001092870037
:100B20001092880010928900D0DC10927500089510
:100B300080917500882309F4DADC8091750081309A
:100B400009F411DD80917500823009F4E5DD8091B2
:100B50007500833009F4E2DE0895809174008823E3
:100B600041F080917300882311F497980895979A23
:100B700008959798109273000895CF92DF92EF92A4
:100B8000FF920F931F93CF93DF93C0906B00D09091
:100B90006C00E0906D00F0906E0000916F0010917D
:100BA0007000D0917100609172008091630070912B
:100BB0006400409165003091660020916700A0912B
:100BC0006800F0916900C0916A00B82FB85651E0F2
:100BD000B81708F050E0872F8B5791E0871708F07F
:100BE00090E0580F71E0581708F070E0972B852FB0
:100BF000E42F50E0940F41E09E1708F040E0542BA2
:100C0000E92F40E0530F91E0531708F090E0492B93
:100C1000752F30E0420F91E0421708F090E0392B39
:100C2000542F20E03A0F91E03A1708F090E0292B7A
:100C3000432F3F2F90E02F0FF1E0231708F0F0E053
:100C40009F2B9C0F691778F19617D1F4D21758F1A2
:100C50002D17B1F4141738F1411791F4051718F155
:100C6000501771F4F716F8F07F1551F4EE16D8F01E
:100C7000EE1531F4D816B8F08D1511F4CB1698F0A6
:100C8000C0926300D0926400E0926500F09266002A
:100C90000093670010936800D093690060936A0026
:100CA00081E080936000DF91CF911F910F91FF90C1
:100CB000EF90DF90CF900895F3DB949A4EDF38DF0A
:080CC0005CDFFCCFF894FFCFCC
:020CC800010029
:00000001FF
